{
  "contractName": "VaultContract",
  "abi": [
    {
      "constant": true,
      "inputs": [
        {
          "internalType": "address",
          "name": "",
          "type": "address"
        }
      ],
      "name": "balanceOf",
      "outputs": [
        {
          "internalType": "uint256",
          "name": "",
          "type": "uint256"
        }
      ],
      "payable": false,
      "stateMutability": "view",
      "type": "function"
    },
    {
      "constant": true,
      "inputs": [
        {
          "internalType": "uint256",
          "name": "",
          "type": "uint256"
        }
      ],
      "name": "vaults",
      "outputs": [
        {
          "internalType": "address",
          "name": "owner",
          "type": "address"
        },
        {
          "internalType": "uint256",
          "name": "amount",
          "type": "uint256"
        }
      ],
      "payable": false,
      "stateMutability": "view",
      "type": "function"
    },
    {
      "constant": false,
      "inputs": [
        {
          "internalType": "uint256",
          "name": "balance",
          "type": "uint256"
        },
        {
          "internalType": "address[]",
          "name": "users",
          "type": "address[]"
        }
      ],
      "name": "createVault",
      "outputs": [],
      "payable": false,
      "stateMutability": "nonpayable",
      "type": "function"
    },
    {
      "constant": false,
      "inputs": [
        {
          "internalType": "uint256",
          "name": "vaultId",
          "type": "uint256"
        },
        {
          "internalType": "uint256",
          "name": "amount",
          "type": "uint256"
        }
      ],
      "name": "addMoney",
      "outputs": [],
      "payable": false,
      "stateMutability": "nonpayable",
      "type": "function"
    },
    {
      "constant": false,
      "inputs": [
        {
          "internalType": "uint256",
          "name": "vaultId",
          "type": "uint256"
        }
      ],
      "name": "distributeMoney",
      "outputs": [
        {
          "internalType": "uint256",
          "name": "",
          "type": "uint256"
        }
      ],
      "payable": false,
      "stateMutability": "nonpayable",
      "type": "function"
    }
  ],
  "bytecode": "0x608060405234801561001057600080fd5b50610658806100206000396000f3fe608060405234801561001057600080fd5b50600436106100575760003560e01c806370a082311461005c5780638c64ea4a146100b4578063a0f8973a14610129578063bd95972c1461016b578063c7b51863146101a3575b600080fd5b61009e6004803603602081101561007257600080fd5b81019080803573ffffffffffffffffffffffffffffffffffffffff169060200190929190505050610265565b6040518082815260200191505060405180910390f35b6100e0600480360360208110156100ca57600080fd5b810190808035906020019092919050505061027d565b604051808373ffffffffffffffffffffffffffffffffffffffff1673ffffffffffffffffffffffffffffffffffffffff1681526020018281526020019250505060405180910390f35b6101556004803603602081101561013f57600080fd5b81019080803590602001909291905050506102c1565b6040518082815260200191505060405180910390f35b6101a16004803603604081101561018157600080fd5b81019080803590602001909291908035906020019092919050505061043c565b005b610263600480360360408110156101b957600080fd5b8101908080359060200190929190803590602001906401000000008111156101e057600080fd5b8201836020820111156101f257600080fd5b8035906020019184602083028401116401000000008311171561021457600080fd5b919080806020026020016040519081016040528093929190818152602001838360200280828437600081840152601f19601f8201169050808301925050505050505091929192905050506104c3565b005b60026020528060005260406000206000915090505481565b60016020528060005260406000206000915090508060000160009054906101000a900473ffffffffffffffffffffffffffffffffffffffff16908060010154905082565b600080600160008481526020019081526020016000209050600081600201805490508260010154816102ef57fe5b049050600082600101541461042e5760005b82600201805490508160ff16101561042c578160026000856002018460ff168154811061032a57fe5b9060005260206000200160009054906101000a900473ffffffffffffffffffffffffffffffffffffffff1673ffffffffffffffffffffffffffffffffffffffff1673ffffffffffffffffffffffffffffffffffffffff168152602001908152602001600020540160026000856002018460ff16815481106103a757fe5b9060005260206000200160009054906101000a900473ffffffffffffffffffffffffffffffffffffffff1673ffffffffffffffffffffffffffffffffffffffff1673ffffffffffffffffffffffffffffffffffffffff168152602001908152602001600020819055508183600101540383600101819055508080600101915050610301565b505b816001015492505050919050565b60006001600084815260200190815260200160002090508060000160009054906101000a900473ffffffffffffffffffffffffffffffffffffffff1673ffffffffffffffffffffffffffffffffffffffff163373ffffffffffffffffffffffffffffffffffffffff16146104af57600080fd5b818160010154018160010181905550505050565b600060016000805481526020019081526020016000209050338160000160006101000a81548173ffffffffffffffffffffffffffffffffffffffff021916908373ffffffffffffffffffffffffffffffffffffffff1602179055508281600101819055508181600201908051906020019061053f929190610556565b506000808154809291906001019190505550505050565b8280548282559060005260206000209081019282156105cf579160200282015b828111156105ce5782518260006101000a81548173ffffffffffffffffffffffffffffffffffffffff021916908373ffffffffffffffffffffffffffffffffffffffff16021790555091602001919060010190610576565b5b5090506105dc91906105e0565b5090565b61062091905b8082111561061c57600081816101000a81549073ffffffffffffffffffffffffffffffffffffffff0219169055506001016105e6565b5090565b9056fea265627a7a72315820f093382753e1189f6b4e71f9109f6b05729f6500db473eb4dd528d4953c78d5764736f6c63430005100032",
  "source": "//\"SPDX-License-Identifier: UNLICENSED\"\r\n\r\npragma solidity ^0.5.16;\r\n\r\ncontract VaultContract {\r\n    uint totalVaults;\r\n    //constructor() public {         uint totalVaults = 1;}\r\n   \r\n    \r\n    struct Vault {\r\n        address owner;\r\n        uint amount;\r\n        address[] users;\r\n}\r\n\r\n    mapping (uint => Vault) public vaults;\r\n    mapping (address => uint) public balanceOf;\r\n    \r\n    \r\n    function createVault(uint balance, address[] memory users)  public {\r\n        \r\n        Vault storage vault = vaults[totalVaults];\r\n        \r\n        vault.owner = msg.sender;\r\n        vault.amount = balance;\r\n        vault.users = users;\r\n        \r\n        totalVaults++ ; \r\n        \r\n    }\r\n    \r\n    function addMoney(uint vaultId, uint amount) public  {\r\n        \r\n        Vault storage vault = vaults[vaultId];\r\n        \r\n        require(msg.sender == vault.owner);\r\n        \r\n        vault.amount = vault.amount + amount;\r\n        \r\n        \r\n    }\r\n    \r\n    function distributeMoney(uint vaultId) public returns(uint) {\r\n        \r\n         Vault storage vault = vaults[vaultId];\r\n         uint amountperuser = vault.amount / vault.users.length ;\r\n         \r\n         if(vault.amount != 0){\r\n                 \r\n         for(uint8 i; i< vault.users.length; i++){\r\n              \r\n              balanceOf[vault.users[i]] = balanceOf[vault.users[i]] + amountperuser ;\r\n              vault.amount = vault.amount - amountperuser;\r\n                \r\n             }\r\n         }\r\n    return vault.amount;\r\n         }\r\n    \r\n    \r\n}",
  "sourcePath": "C:/Users/KEVIN/Desktop/Vault/contracts/VaultContract.sol",
  "compiler": {
    "name": "solc",
    "version": "0.5.16+commit.9c3226ce.Emscripten.clang"
  },
  "schemaVersion": "3.4.1",
  "updatedAt": "2021-07-03T06:06:18.528Z",
  "networkType": "ethereum",
  "devdoc": {
    "methods": {}
  },
  "userdoc": {
    "methods": {}
  }
}